:100000000C9434000C943E000C943E000C943E0082
:100010000C943E000C943E000C943E000C943E0068
:100020000C943E000C943E000C943E000C943E0058
:100030000C943E000C943E000C943E000C943E0048
:100040000C943E000C943E000C943E000C943E0038
:100050000C943E000C943E000C943E000C943E0028
:100060000C943E000C943E0011241FBECFEFD8E04C
:10007000DEBFCDBF0E9440000C945E000C940000D7
:10008000E4E2F0E08081877F8083E5E2F0E0808138
:1000900088608083EAE2F0E0808182608083A3E26E
:1000A000B0E0EBE2F0E08C9183FF04C080818D7FB3
:1000B0008083F9CF808182608083F5CFF894FFCF71
:00000001FF
