:100000000C9434000C943E000C943E000C943E0082
:100010000C943E000C943E000C943E000C943E0068
:100020000C943E000C943E000C943E000C943E0058
:100030000C943E000C943E000C943E000C943E0048
:100040000C943E000C943E000C943E000C943E0038
:100050000C943E000C943E000C943E000C943E0028
:100060000C943E000C943E0011241FBECFEFD8E04C
:10007000DEBFCDBF0E9457000C948D000C94000091
:10008000BC0184E294EF0E94790061507040872F98
:10009000992787FD9A958093C5006093C4000895C1
:1000A00088E08093C10086E08093C200089580E8D4
:1000B00095E20E9440000E94500020E23EE449E1A7
:1000C00050E0E6ECF0E0A8E360E27EE405C0CA019F
:1000D0000197F1F72150304021153105C1F7A08378
:1000E0009B01CA010197F1F721503040D1F79B01E4
:1000F000F3CFAA1BBB1B51E107C0AA1FBB1FA6174A
:10010000B70710F0A61BB70B881F991F5A95A9F7C0
:0E01100080959095BC01CD010895F894FFCF25
:00000001FF
