:100000000C9434000C9446000C9446000C9446006A
:100010000C9446000C9446000C9446000C94460048
:100020000C9446000C9446000C9446000C94460038
:100030000C9446000C9446000C9446000C94460028
:100040000C9446000C9446000C9446000C94460018
:100050000C9446000C9446000C9446000C94460008
:100060000C9446000C94460011241FBECFEFD8E03C
:10007000DEBFCDBF11E0A0E0B1E001C01D92A03015
:10008000B107E1F70E9448000C9495000C94000021
:10009000CF92DF92EF92FF920F931F93CF93DF9354
:1000A000EAE2F0E0808188608083E7E2F0E080812E
:1000B0008E7F8083EAE7F0E080818660808380EC39
:1000C00080937C00AAE7B0E00F2EF0E8FF2EF02D21
:1000D00008E710E069E770E0CBE2D0E040E157E2EA
:1000E000EE246894E3F80F2EF9E1CF2EDD24F02DF5
:1000F000FC928C9180648C93F8018081FB012081BB
:10010000322F20E090E0822B932B8C52914018F4F8
:10011000E882CA0104C08881877F8883CA01F6010A
:0E0120003197F1F7019721F3FACFF894FFCF52
:00000001FF
