:100000000C9434000C943E000C943E000C943E0082
:100010000C943E000C943E000C943E000C943E0068
:100020000C943E000C943E000C943E000C943E0058
:100030000C943E000C943E000C943E000C943E0048
:100040000C943E000C943E000C943E000C943E0038
:100050000C943E000C943E000C943E000C943E0028
:100060000C943E000C943E0011241FBECFEFD8E04C
:10007000DEBFCDBF0E9412010C9445010C9400001C
:10008000789482E68093B8001092B90084E080935F
:10009000BC00089584EA8093BC00ECEBF0E0808122
:1000A0008823ECF708958093BB0084E88093BC001C
:1000B000ECEBF0E080818823ECF70895CF92DF929B
:1000C000EF92FF920F931F930F2EF0EFDF2EF02D84
:1000D000D822082F10E002951295107F1027007F7C
:1000E00010278D2D82600E9453000F2EF8EAEF2E0C
:1000F000F1E6FF2EF02DC7010197F1F78D2D0E943B
:100100005300C7010197F1F7802F82600E945300CE
:10011000C7010197F1F7802F0E945300C701019793
:10012000F1F71F910F91FF90EF90DF90CF9008951E
:10013000EF92FF920F931F93182F082F007F1295B5
:10014000107F802F83600E9453000F2EF8EAEF2E5D
:10015000F1E6FF2EF02DC7010197F1F7802F8160A6
:100160000E945300C7010197F1F7812F83600E941D
:100170005300C7010197F1F7812F81600E9453005E
:10018000C7010197F1F71F910F91FF90EF9008952C
:100190000E9440000E944A0080E40E94530008959B
:1001A00082E00E945E0028EB3BE049E150E0CA019A
:1001B0000197F1F721503040D1F788E20E945E00AC
:1001C00028EB3BE049E150E0CA010197F1F72150EB
:1001D0003040D1F781E00E945E0028EB3BE049E12E
:1001E00050E0CA010197F1F721503040D1F78EE07D
:1001F0000E945E0028EB3BE049E150E0CA01019714
:10020000F1F721503040D1F780E80E945E0028EBE2
:100210003BE049E150E0CA010197F1F7215030403D
:10022000D1F708950F931F930E94C80028EB3BE07D
:1002300049E150E0CA010197F1F721503040D1F770
:100240000E94D00088EA91E60197F1F783E50E94C9
:10025000980000E513ECC8010197F1F788E40E94CB
:100260009800C8010197F1F789E40E949800C8013D
:100270000197F1F786E50E949800C8010197F1F710
:0E02800080E090E01F910F910895F894FFCF59
:00000001FF
