:100000000C9434000C943E000C943E000C943E0082
:100010000C943E000C943E000C943E000C943E0068
:100020000C943E000C943E000C943E000C943E0058
:100030000C943E000C943E000C943E000C943E0048
:100040000C943E000C943E000C943E000C943E0038
:100050000C943E000C943E000C943E000C943E0028
:100060000C943E000C943E0011241FBECFEFD8E04C
:10007000DEBFCDBF0E9440000C945D000C940000D8
:1000800082E08AB9EBE2F0E060E177E249E150E03A
:100090008081826080839B01CA010197F1F7215022
:1000A0003040D1F780818D7F80839B01CA01019709
:0E00B000F1F721503040D1F7EBCFF894FFCF9D
:00000001FF
