:100000000C9434000C943E000C943E000C943E0082
:100010000C943E000C943E000C943E000C943E0068
:100020000C943E000C943E000C943E000C943E0058
:100030000C943E000C943E000C943E000C943E0048
:100040000C943E000C943E000C943E000C943E0038
:100050000C943E000C943E000C943E000C943E0028
:100060000C943E000C943E0011241FBECFEFD8E04C
:10007000DEBFCDBF0E94A4000C94BF000C94000012
:1000800085B9E8E2F0E080818E7F808380818260A4
:10009000808388EA91E60197F1F780818D7F8083E4
:1000A000089585B9E8E2F0E08081816080838081F5
:1000B0008260808388EA91E60197F1F780818D7FE5
:1000C0008083089588E30E94400028EB3BE049E1EB
:1000D00050E0CA010197F1F721503040D1F78EE08E
:1000E0000E94400028EB3BE049E150E0CA01019743
:1000F000F1F721503040D1F78CE00E94400028EB0E
:100100003BE049E150E0CA010197F1F7215030404E
:10011000D1F781E00E94400028EB3BE049E150E04C
:10012000CA010197F1F721503040D1F780EC0E94CD
:10013000400028EB3BE049E150E0CA010197F1F7AC
:1001400021503040D1F708958FEF84B9E7E2F0E015
:100150008081816080838081826080830E946200D0
:1001600083E50E94510088E40E94510089E40E94C6
:10017000510086E50E94510080E090E00895F894D7
:02018000FFCFAF
:00000001FF
